{
	"bytearray.sol": {
		"Array": {
			"abi": [
				{
					"constant": true,
					"inputs": [],
					"name": "b2",
					"outputs": [
						{
							"internalType": "bytes2",
							"name": "",
							"type": "bytes2"
						}
					],
					"payable": false,
					"stateMutability": "view",
					"type": "function"
				},
				{
					"constant": true,
					"inputs": [],
					"name": "b3",
					"outputs": [
						{
							"internalType": "bytes3",
							"name": "",
							"type": "bytes3"
						}
					],
					"payable": false,
					"stateMutability": "view",
					"type": "function"
				},
				{
					"constant": true,
					"inputs": [],
					"name": "b4",
					"outputs": [
						{
							"internalType": "bytes4",
							"name": "",
							"type": "bytes4"
						}
					],
					"payable": false,
					"stateMutability": "view",
					"type": "function"
				},
				{
					"constant": false,
					"inputs": [],
					"name": "setter",
					"outputs": [],
					"payable": false,
					"stateMutability": "nonpayable",
					"type": "function"
				}
			],
			"devdoc": {
				"methods": {}
			},
			"evm": {
				"assembly": "    /* \"bytearray.sol\":239:842  contract Array{\r... */\n  mstore(0x40, 0x80)\n  callvalue\n    /* \"--CODEGEN--\":8:17   */\n  dup1\n    /* \"--CODEGEN--\":5:7   */\n  iszero\n  tag_1\n  jumpi\n    /* \"--CODEGEN--\":30:31   */\n  0x00\n    /* \"--CODEGEN--\":27:28   */\n  dup1\n    /* \"--CODEGEN--\":20:32   */\n  revert\n    /* \"--CODEGEN--\":5:7   */\ntag_1:\n    /* \"bytearray.sol\":239:842  contract Array{\r... */\n  pop\n  dataSize(sub_0)\n  dup1\n  dataOffset(sub_0)\n  0x00\n  codecopy\n  0x00\n  return\nstop\n\nsub_0: assembly {\n        /* \"bytearray.sol\":239:842  contract Array{\r... */\n      mstore(0x40, 0x80)\n      callvalue\n        /* \"--CODEGEN--\":8:17   */\n      dup1\n        /* \"--CODEGEN--\":5:7   */\n      iszero\n      tag_1\n      jumpi\n        /* \"--CODEGEN--\":30:31   */\n      0x00\n        /* \"--CODEGEN--\":27:28   */\n      dup1\n        /* \"--CODEGEN--\":20:32   */\n      revert\n        /* \"--CODEGEN--\":5:7   */\n    tag_1:\n        /* \"bytearray.sol\":239:842  contract Array{\r... */\n      pop\n      jumpi(tag_2, lt(calldatasize, 0x04))\n      shr(0xe0, calldataload(0x00))\n      dup1\n      0x0add6ef2\n      eq\n      tag_3\n      jumpi\n      dup1\n      0x3db3fb0a\n      eq\n      tag_4\n      jumpi\n      dup1\n      0x3f3108f7\n      eq\n      tag_5\n      jumpi\n      dup1\n      0xe9b61909\n      eq\n      tag_6\n      jumpi\n    tag_2:\n      0x00\n      dup1\n      revert\n        /* \"bytearray.sol\":299:315  bytes2 public b2 */\n    tag_3:\n      tag_7\n      tag_8\n      jump\t// in\n    tag_7:\n      mload(0x40)\n      dup1\n      dup3\n      not(0xffffffffffffffffffffffffffffffffffffffffffffffffffffffffffff)\n      and\n      not(0xffffffffffffffffffffffffffffffffffffffffffffffffffffffffffff)\n      and\n      dup2\n      mstore\n      0x20\n      add\n      swap2\n      pop\n      pop\n      mload(0x40)\n      dup1\n      swap2\n      sub\n      swap1\n      return\n        /* \"bytearray.sol\":338:354  bytes4 public b4 */\n    tag_4:\n      tag_9\n      tag_10\n      jump\t// in\n    tag_9:\n      mload(0x40)\n      dup1\n      dup3\n      not(0xffffffffffffffffffffffffffffffffffffffffffffffffffffffff)\n      and\n      not(0xffffffffffffffffffffffffffffffffffffffffffffffffffffffff)\n      and\n      dup2\n      mstore\n      0x20\n      add\n      swap2\n      pop\n      pop\n      mload(0x40)\n      dup1\n      swap2\n      sub\n      swap1\n      return\n        /* \"bytearray.sol\":379:593  function setter() public{\r... */\n    tag_5:\n      tag_11\n      tag_12\n      jump\t// in\n    tag_11:\n      stop\n        /* \"bytearray.sol\":260:276  bytes3 public b3 */\n    tag_6:\n      tag_13\n      tag_14\n      jump\t// in\n    tag_13:\n      mload(0x40)\n      dup1\n      dup3\n      not(0xffffffffffffffffffffffffffffffffffffffffffffffffffffffffff)\n      and\n      not(0xffffffffffffffffffffffffffffffffffffffffffffffffffffffffff)\n      and\n      dup2\n      mstore\n      0x20\n      add\n      swap2\n      pop\n      pop\n      mload(0x40)\n      dup1\n      swap2\n      sub\n      swap1\n      return\n        /* \"bytearray.sol\":299:315  bytes2 public b2 */\n    tag_8:\n      0x00\n      0x03\n      swap1\n      sload\n      swap1\n      0x0100\n      exp\n      swap1\n      div\n      0xf0\n      shl\n      dup2\n      jump\t// out\n        /* \"bytearray.sol\":338:354  bytes4 public b4 */\n    tag_10:\n      0x00\n      0x05\n      swap1\n      sload\n      swap1\n      0x0100\n      exp\n      swap1\n      div\n      0xe0\n      shl\n      dup2\n      jump\t// out\n        /* \"bytearray.sol\":379:593  function setter() public{\r... */\n    tag_12:\n        /* \"bytearray.sol\":414:424  b3 = 'abc' */\n      0x6162630000000000000000000000000000000000000000000000000000000000\n        /* \"bytearray.sol\":414:416  b3 */\n      0x00\n      dup1\n        /* \"bytearray.sol\":414:424  b3 = 'abc' */\n      0x0100\n      exp\n      dup2\n      sload\n      dup2\n      0xffffff\n      mul\n      not\n      and\n      swap1\n      dup4\n      0xe8\n      shr\n      mul\n      or\n      swap1\n      sstore\n      pop\n        /* \"bytearray.sol\":435:444  b2 = 'ab' */\n      0x6162000000000000000000000000000000000000000000000000000000000000\n        /* \"bytearray.sol\":435:437  b2 */\n      0x00\n      0x03\n        /* \"bytearray.sol\":435:444  b2 = 'ab' */\n      0x0100\n      exp\n      dup2\n      sload\n      dup2\n      0xffff\n      mul\n      not\n      and\n      swap1\n      dup4\n      0xf0\n      shr\n      mul\n      or\n      swap1\n      sstore\n      pop\n        /* \"bytearray.sol\":455:463  b4 = 'a' */\n      0x6100000000000000000000000000000000000000000000000000000000000000\n        /* \"bytearray.sol\":455:457  b4 */\n      0x00\n      0x05\n        /* \"bytearray.sol\":455:463  b4 = 'a' */\n      0x0100\n      exp\n      dup2\n      sload\n      dup2\n      0xffffffff\n      mul\n      not\n      and\n      swap1\n      dup4\n      0xe0\n      shr\n      mul\n      or\n      swap1\n      sstore\n      pop\n        /* \"bytearray.sol\":379:593  function setter() public{\r... */\n      jump\t// out\n        /* \"bytearray.sol\":260:276  bytes3 public b3 */\n    tag_14:\n      0x00\n      dup1\n      swap1\n      sload\n      swap1\n      0x0100\n      exp\n      swap1\n      div\n      0xe8\n      shl\n      dup2\n      jump\t// out\n\n    auxdata: 0xa265627a7a723158202f05d4167cfd3b755a693a93f4f789ced54bc1489738d918421dd9425e909fe464736f6c63430005110032\n}\n",
				"bytecode": {
					"linkReferences": {},
					"object": "608060405234801561001057600080fd5b5061029a806100206000396000f3fe608060405234801561001057600080fd5b506004361061004c5760003560e01c80630add6ef2146100515780633db3fb0a146100b15780633f3108f71461010d578063e9b6190914610117575b600080fd5b610059610175565b60405180827dffffffffffffffffffffffffffffffffffffffffffffffffffffffffffff19167dffffffffffffffffffffffffffffffffffffffffffffffffffffffffffff1916815260200191505060405180910390f35b6100b9610188565b60405180827bffffffffffffffffffffffffffffffffffffffffffffffffffffffff19167bffffffffffffffffffffffffffffffffffffffffffffffffffffffff1916815260200191505060405180910390f35b61011561019b565b005b61011f610253565b60405180827cffffffffffffffffffffffffffffffffffffffffffffffffffffffffff19167cffffffffffffffffffffffffffffffffffffffffffffffffffffffffff1916815260200191505060405180910390f35b600060039054906101000a900460f01b81565b600060059054906101000a900460e01b81565b7f61626300000000000000000000000000000000000000000000000000000000006000806101000a81548162ffffff021916908360e81c02179055507f6162000000000000000000000000000000000000000000000000000000000000600060036101000a81548161ffff021916908360f01c02179055507f6100000000000000000000000000000000000000000000000000000000000000600060056101000a81548163ffffffff021916908360e01c0217905550565b6000809054906101000a900460e81b8156fea265627a7a723158202f05d4167cfd3b755a693a93f4f789ced54bc1489738d918421dd9425e909fe464736f6c63430005110032",
					"opcodes": "PUSH1 0x80 PUSH1 0x40 MSTORE CALLVALUE DUP1 ISZERO PUSH2 0x10 JUMPI PUSH1 0x0 DUP1 REVERT JUMPDEST POP PUSH2 0x29A DUP1 PUSH2 0x20 PUSH1 0x0 CODECOPY PUSH1 0x0 RETURN INVALID PUSH1 0x80 PUSH1 0x40 MSTORE CALLVALUE DUP1 ISZERO PUSH2 0x10 JUMPI PUSH1 0x0 DUP1 REVERT JUMPDEST POP PUSH1 0x4 CALLDATASIZE LT PUSH2 0x4C JUMPI PUSH1 0x0 CALLDATALOAD PUSH1 0xE0 SHR DUP1 PUSH4 0xADD6EF2 EQ PUSH2 0x51 JUMPI DUP1 PUSH4 0x3DB3FB0A EQ PUSH2 0xB1 JUMPI DUP1 PUSH4 0x3F3108F7 EQ PUSH2 0x10D JUMPI DUP1 PUSH4 0xE9B61909 EQ PUSH2 0x117 JUMPI JUMPDEST PUSH1 0x0 DUP1 REVERT JUMPDEST PUSH2 0x59 PUSH2 0x175 JUMP JUMPDEST PUSH1 0x40 MLOAD DUP1 DUP3 PUSH30 0xFFFFFFFFFFFFFFFFFFFFFFFFFFFFFFFFFFFFFFFFFFFFFFFFFFFFFFFFFFFF NOT AND PUSH30 0xFFFFFFFFFFFFFFFFFFFFFFFFFFFFFFFFFFFFFFFFFFFFFFFFFFFFFFFFFFFF NOT AND DUP2 MSTORE PUSH1 0x20 ADD SWAP2 POP POP PUSH1 0x40 MLOAD DUP1 SWAP2 SUB SWAP1 RETURN JUMPDEST PUSH2 0xB9 PUSH2 0x188 JUMP JUMPDEST PUSH1 0x40 MLOAD DUP1 DUP3 PUSH28 0xFFFFFFFFFFFFFFFFFFFFFFFFFFFFFFFFFFFFFFFFFFFFFFFFFFFFFFFF NOT AND PUSH28 0xFFFFFFFFFFFFFFFFFFFFFFFFFFFFFFFFFFFFFFFFFFFFFFFFFFFFFFFF NOT AND DUP2 MSTORE PUSH1 0x20 ADD SWAP2 POP POP PUSH1 0x40 MLOAD DUP1 SWAP2 SUB SWAP1 RETURN JUMPDEST PUSH2 0x115 PUSH2 0x19B JUMP JUMPDEST STOP JUMPDEST PUSH2 0x11F PUSH2 0x253 JUMP JUMPDEST PUSH1 0x40 MLOAD DUP1 DUP3 PUSH29 0xFFFFFFFFFFFFFFFFFFFFFFFFFFFFFFFFFFFFFFFFFFFFFFFFFFFFFFFFFF NOT AND PUSH29 0xFFFFFFFFFFFFFFFFFFFFFFFFFFFFFFFFFFFFFFFFFFFFFFFFFFFFFFFFFF NOT AND DUP2 MSTORE PUSH1 0x20 ADD SWAP2 POP POP PUSH1 0x40 MLOAD DUP1 SWAP2 SUB SWAP1 RETURN JUMPDEST PUSH1 0x0 PUSH1 0x3 SWAP1 SLOAD SWAP1 PUSH2 0x100 EXP SWAP1 DIV PUSH1 0xF0 SHL DUP2 JUMP JUMPDEST PUSH1 0x0 PUSH1 0x5 SWAP1 SLOAD SWAP1 PUSH2 0x100 EXP SWAP1 DIV PUSH1 0xE0 SHL DUP2 JUMP JUMPDEST PUSH32 0x6162630000000000000000000000000000000000000000000000000000000000 PUSH1 0x0 DUP1 PUSH2 0x100 EXP DUP2 SLOAD DUP2 PUSH3 0xFFFFFF MUL NOT AND SWAP1 DUP4 PUSH1 0xE8 SHR MUL OR SWAP1 SSTORE POP PUSH32 0x6162000000000000000000000000000000000000000000000000000000000000 PUSH1 0x0 PUSH1 0x3 PUSH2 0x100 EXP DUP2 SLOAD DUP2 PUSH2 0xFFFF MUL NOT AND SWAP1 DUP4 PUSH1 0xF0 SHR MUL OR SWAP1 SSTORE POP PUSH32 0x6100000000000000000000000000000000000000000000000000000000000000 PUSH1 0x0 PUSH1 0x5 PUSH2 0x100 EXP DUP2 SLOAD DUP2 PUSH4 0xFFFFFFFF MUL NOT AND SWAP1 DUP4 PUSH1 0xE0 SHR MUL OR SWAP1 SSTORE POP JUMP JUMPDEST PUSH1 0x0 DUP1 SWAP1 SLOAD SWAP1 PUSH2 0x100 EXP SWAP1 DIV PUSH1 0xE8 SHL DUP2 JUMP INVALID LOG2 PUSH6 0x627A7A723158 KECCAK256 0x2F SDIV 0xD4 AND PUSH29 0xFD3B755A693A93F4F789CED54BC1489738D918421DD9425E909FE46473 PUSH16 0x6C634300051100320000000000000000 "
				},
				"gasEstimates": {
					"creation": {
						"codeDepositCost": "133200",
						"executionCost": "177",
						"totalCost": "133377"
					},
					"external": {
						"b2()": "1087",
						"b3()": "1103",
						"b4()": "1109",
						"setter()": "62867"
					}
				},
				"methodIdentifiers": {
					"b2()": "0add6ef2",
					"b3()": "e9b61909",
					"b4()": "3db3fb0a",
					"setter()": "3f3108f7"
				}
			},
			"storageLayout": {
				"storage": [
					{
						"astId": 3,
						"contract": "bytearray.sol:Array",
						"label": "b3",
						"offset": 0,
						"slot": "0",
						"type": "t_bytes3"
					},
					{
						"astId": 5,
						"contract": "bytearray.sol:Array",
						"label": "b2",
						"offset": 3,
						"slot": "0",
						"type": "t_bytes2"
					},
					{
						"astId": 7,
						"contract": "bytearray.sol:Array",
						"label": "b4",
						"offset": 5,
						"slot": "0",
						"type": "t_bytes4"
					}
				],
				"types": {
					"t_bytes2": {
						"encoding": "inplace",
						"label": "bytes2",
						"numberOfBytes": "2"
					},
					"t_bytes3": {
						"encoding": "inplace",
						"label": "bytes3",
						"numberOfBytes": "3"
					},
					"t_bytes4": {
						"encoding": "inplace",
						"label": "bytes4",
						"numberOfBytes": "4"
					}
				}
			},
			"userdoc": {
				"methods": {}
			}
		}
	}
}