{
	"operators.sol": {
		"ArithmeticExample": {
			"abi": [
				{
					"constant": true,
					"inputs": [
						{
							"internalType": "uint256",
							"name": "a",
							"type": "uint256"
						},
						{
							"internalType": "uint256",
							"name": "b",
							"type": "uint256"
						}
					],
					"name": "arithmeticOperations",
					"outputs": [
						{
							"internalType": "uint256",
							"name": "",
							"type": "uint256"
						},
						{
							"internalType": "uint256",
							"name": "",
							"type": "uint256"
						},
						{
							"internalType": "uint256",
							"name": "",
							"type": "uint256"
						},
						{
							"internalType": "uint256",
							"name": "",
							"type": "uint256"
						},
						{
							"internalType": "uint256",
							"name": "",
							"type": "uint256"
						}
					],
					"payable": false,
					"stateMutability": "view",
					"type": "function"
				}
			],
			"devdoc": {
				"methods": {}
			},
			"evm": {
				"assembly": "    /* \"operators.sol\":60:515  contract ArithmeticExample {\r... */\n  mstore(0x40, 0x80)\n  callvalue\n    /* \"--CODEGEN--\":8:17   */\n  dup1\n    /* \"--CODEGEN--\":5:7   */\n  iszero\n  tag_1\n  jumpi\n    /* \"--CODEGEN--\":30:31   */\n  0x00\n    /* \"--CODEGEN--\":27:28   */\n  dup1\n    /* \"--CODEGEN--\":20:32   */\n  revert\n    /* \"--CODEGEN--\":5:7   */\ntag_1:\n    /* \"operators.sol\":60:515  contract ArithmeticExample {\r... */\n  pop\n  dataSize(sub_0)\n  dup1\n  dataOffset(sub_0)\n  0x00\n  codecopy\n  0x00\n  return\nstop\n\nsub_0: assembly {\n        /* \"operators.sol\":60:515  contract ArithmeticExample {\r... */\n      mstore(0x40, 0x80)\n      callvalue\n        /* \"--CODEGEN--\":8:17   */\n      dup1\n        /* \"--CODEGEN--\":5:7   */\n      iszero\n      tag_1\n      jumpi\n        /* \"--CODEGEN--\":30:31   */\n      0x00\n        /* \"--CODEGEN--\":27:28   */\n      dup1\n        /* \"--CODEGEN--\":20:32   */\n      revert\n        /* \"--CODEGEN--\":5:7   */\n    tag_1:\n        /* \"operators.sol\":60:515  contract ArithmeticExample {\r... */\n      pop\n      jumpi(tag_2, lt(calldatasize, 0x04))\n      shr(0xe0, calldataload(0x00))\n      dup1\n      0xa5069a9f\n      eq\n      tag_3\n      jumpi\n    tag_2:\n      0x00\n      dup1\n      revert\n        /* \"operators.sol\":94:512  function arithmeticOperations(uint a, uint b) public pure returns (uint, uint, uint, uint, uint) {\r... */\n    tag_3:\n      tag_4\n      0x04\n      dup1\n      calldatasize\n      sub\n        /* \"--CODEGEN--\":13:15   */\n      0x40\n        /* \"--CODEGEN--\":8:11   */\n      dup2\n        /* \"--CODEGEN--\":5:16   */\n      lt\n        /* \"--CODEGEN--\":2:4   */\n      iszero\n      tag_5\n      jumpi\n        /* \"--CODEGEN--\":29:30   */\n      0x00\n        /* \"--CODEGEN--\":26:27   */\n      dup1\n        /* \"--CODEGEN--\":19:31   */\n      revert\n        /* \"--CODEGEN--\":2:4   */\n    tag_5:\n        /* \"operators.sol\":94:512  function arithmeticOperations(uint a, uint b) public pure returns (uint, uint, uint, uint, uint) {\r... */\n      dup2\n      add\n      swap1\n      dup1\n      dup1\n      calldataload\n      swap1\n      0x20\n      add\n      swap1\n      swap3\n      swap2\n      swap1\n      dup1\n      calldataload\n      swap1\n      0x20\n      add\n      swap1\n      swap3\n      swap2\n      swap1\n      pop\n      pop\n      pop\n      tag_6\n      jump\t// in\n    tag_4:\n      mload(0x40)\n      dup1\n      dup7\n      dup2\n      mstore\n      0x20\n      add\n      dup6\n      dup2\n      mstore\n      0x20\n      add\n      dup5\n      dup2\n      mstore\n      0x20\n      add\n      dup4\n      dup2\n      mstore\n      0x20\n      add\n      dup3\n      dup2\n      mstore\n      0x20\n      add\n      swap6\n      pop\n      pop\n      pop\n      pop\n      pop\n      pop\n      mload(0x40)\n      dup1\n      swap2\n      sub\n      swap1\n      return\n    tag_6:\n        /* \"operators.sol\":161:165  uint */\n      0x00\n        /* \"operators.sol\":167:171  uint */\n      dup1\n        /* \"operators.sol\":173:177  uint */\n      0x00\n        /* \"operators.sol\":179:183  uint */\n      dup1\n        /* \"operators.sol\":185:189  uint */\n      0x00\n        /* \"operators.sol\":202:210  uint sum */\n      dup1\n        /* \"operators.sol\":217:218  b */\n      dup7\n        /* \"operators.sol\":213:214  a */\n      dup9\n        /* \"operators.sol\":213:218  a + b */\n      add\n        /* \"operators.sol\":202:218  uint sum = a + b */\n      swap1\n      pop\n        /* \"operators.sol\":250:265  uint difference */\n      0x00\n        /* \"operators.sol\":272:273  b */\n      dup8\n        /* \"operators.sol\":268:269  a */\n      dup10\n        /* \"operators.sol\":268:273  a - b */\n      sub\n        /* \"operators.sol\":250:273  uint difference = a - b */\n      swap1\n      pop\n        /* \"operators.sol\":301:313  uint product */\n      0x00\n        /* \"operators.sol\":320:321  b */\n      dup9\n        /* \"operators.sol\":316:317  a */\n      dup11\n        /* \"operators.sol\":316:321  a * b */\n      mul\n        /* \"operators.sol\":301:321  uint product = a * b */\n      swap1\n      pop\n        /* \"operators.sol\":355:368  uint quotient */\n      0x00\n        /* \"operators.sol\":375:376  b */\n      dup10\n        /* \"operators.sol\":371:372  a */\n      dup12\n        /* \"operators.sol\":371:376  a / b */\n      dup2\n      tag_8\n      jumpi\n      invalid\n    tag_8:\n      div\n        /* \"operators.sol\":355:376  uint quotient = a / b */\n      swap1\n      pop\n        /* \"operators.sol\":403:417  uint remainder */\n      0x00\n        /* \"operators.sol\":424:425  b */\n      dup11\n        /* \"operators.sol\":420:421  a */\n      dup13\n        /* \"operators.sol\":420:425  a % b */\n      dup2\n      tag_9\n      jumpi\n      invalid\n    tag_9:\n      mod\n        /* \"operators.sol\":403:425  uint remainder = a % b */\n      swap1\n      pop\n        /* \"operators.sol\":458:461  sum */\n      dup5\n        /* \"operators.sol\":463:473  difference */\n      dup5\n        /* \"operators.sol\":475:482  product */\n      dup5\n        /* \"operators.sol\":484:492  quotient */\n      dup5\n        /* \"operators.sol\":494:503  remainder */\n      dup5\n        /* \"operators.sol\":450:504  return (sum, difference, product, quotient, remainder) */\n      swap10\n      pop\n      swap10\n      pop\n      swap10\n      pop\n      swap10\n      pop\n      swap10\n      pop\n      pop\n      pop\n      pop\n      pop\n      pop\n        /* \"operators.sol\":94:512  function arithmeticOperations(uint a, uint b) public pure returns (uint, uint, uint, uint, uint) {\r... */\n      swap3\n      swap6\n      pop\n      swap3\n      swap6\n      swap1\n      swap4\n      pop\n      jump\t// out\n\n    auxdata: 0xa265627a7a7231582038731dd2aae20a6d4f6192833e7c9deecdcd6c42ca92f80abb3b2f90c217894164736f6c63430005110032\n}\n",
				"bytecode": {
					"linkReferences": {},
					"object": "608060405234801561001057600080fd5b5061011b806100206000396000f3fe6080604052348015600f57600080fd5b506004361060285760003560e01c8063a5069a9f14602d575b600080fd5b606060048036036040811015604157600080fd5b8101908080359060200190929190803590602001909291905050506092565b604051808681526020018581526020018481526020018381526020018281526020019550505050505060405180910390f35b6000806000806000808688019050600087890390506000888a0290506000898b8160b857fe5b04905060008a8c8160c557fe5b0690508484848484995099509950995099505050505050929550929590935056fea265627a7a7231582038731dd2aae20a6d4f6192833e7c9deecdcd6c42ca92f80abb3b2f90c217894164736f6c63430005110032",
					"opcodes": "PUSH1 0x80 PUSH1 0x40 MSTORE CALLVALUE DUP1 ISZERO PUSH2 0x10 JUMPI PUSH1 0x0 DUP1 REVERT JUMPDEST POP PUSH2 0x11B DUP1 PUSH2 0x20 PUSH1 0x0 CODECOPY PUSH1 0x0 RETURN INVALID PUSH1 0x80 PUSH1 0x40 MSTORE CALLVALUE DUP1 ISZERO PUSH1 0xF JUMPI PUSH1 0x0 DUP1 REVERT JUMPDEST POP PUSH1 0x4 CALLDATASIZE LT PUSH1 0x28 JUMPI PUSH1 0x0 CALLDATALOAD PUSH1 0xE0 SHR DUP1 PUSH4 0xA5069A9F EQ PUSH1 0x2D JUMPI JUMPDEST PUSH1 0x0 DUP1 REVERT JUMPDEST PUSH1 0x60 PUSH1 0x4 DUP1 CALLDATASIZE SUB PUSH1 0x40 DUP2 LT ISZERO PUSH1 0x41 JUMPI PUSH1 0x0 DUP1 REVERT JUMPDEST DUP2 ADD SWAP1 DUP1 DUP1 CALLDATALOAD SWAP1 PUSH1 0x20 ADD SWAP1 SWAP3 SWAP2 SWAP1 DUP1 CALLDATALOAD SWAP1 PUSH1 0x20 ADD SWAP1 SWAP3 SWAP2 SWAP1 POP POP POP PUSH1 0x92 JUMP JUMPDEST PUSH1 0x40 MLOAD DUP1 DUP7 DUP2 MSTORE PUSH1 0x20 ADD DUP6 DUP2 MSTORE PUSH1 0x20 ADD DUP5 DUP2 MSTORE PUSH1 0x20 ADD DUP4 DUP2 MSTORE PUSH1 0x20 ADD DUP3 DUP2 MSTORE PUSH1 0x20 ADD SWAP6 POP POP POP POP POP POP PUSH1 0x40 MLOAD DUP1 SWAP2 SUB SWAP1 RETURN JUMPDEST PUSH1 0x0 DUP1 PUSH1 0x0 DUP1 PUSH1 0x0 DUP1 DUP7 DUP9 ADD SWAP1 POP PUSH1 0x0 DUP8 DUP10 SUB SWAP1 POP PUSH1 0x0 DUP9 DUP11 MUL SWAP1 POP PUSH1 0x0 DUP10 DUP12 DUP2 PUSH1 0xB8 JUMPI INVALID JUMPDEST DIV SWAP1 POP PUSH1 0x0 DUP11 DUP13 DUP2 PUSH1 0xC5 JUMPI INVALID JUMPDEST MOD SWAP1 POP DUP5 DUP5 DUP5 DUP5 DUP5 SWAP10 POP SWAP10 POP SWAP10 POP SWAP10 POP SWAP10 POP POP POP POP POP POP SWAP3 SWAP6 POP SWAP3 SWAP6 SWAP1 SWAP4 POP JUMP INVALID LOG2 PUSH6 0x627A7A723158 KECCAK256 CODESIZE PUSH20 0x1DD2AAE20A6D4F6192833E7C9DEECDCD6C42CA92 0xF8 EXP 0xBB EXTCODESIZE 0x2F SWAP1 0xC2 OR DUP10 COINBASE PUSH5 0x736F6C6343 STOP SDIV GT STOP ORIGIN "
				},
				"gasEstimates": {
					"creation": {
						"codeDepositCost": "56600",
						"executionCost": "105",
						"totalCost": "56705"
					},
					"external": {
						"arithmeticOperations(uint256,uint256)": "578"
					}
				},
				"methodIdentifiers": {
					"arithmeticOperations(uint256,uint256)": "a5069a9f"
				}
			},
			"storageLayout": {
				"storage": [],
				"types": null
			},
			"userdoc": {
				"methods": {}
			}
		}
	}
}