{
	"localVariable.sol": {
		"SolidityTest": {
			"abi": [
				{
					"inputs": [],
					"payable": false,
					"stateMutability": "nonpayable",
					"type": "constructor"
				},
				{
					"constant": true,
					"inputs": [],
					"name": "getResult",
					"outputs": [
						{
							"internalType": "uint256",
							"name": "",
							"type": "uint256"
						}
					],
					"payable": false,
					"stateMutability": "view",
					"type": "function"
				},
				{
					"constant": true,
					"inputs": [],
					"name": "getStoredData",
					"outputs": [
						{
							"internalType": "uint256",
							"name": "",
							"type": "uint256"
						}
					],
					"payable": false,
					"stateMutability": "view",
					"type": "function"
				},
				{
					"constant": true,
					"inputs": [],
					"name": "storedData",
					"outputs": [
						{
							"internalType": "uint256",
							"name": "",
							"type": "uint256"
						}
					],
					"payable": false,
					"stateMutability": "view",
					"type": "function"
				}
			],
			"devdoc": {
				"methods": {}
			},
			"evm": {
				"assembly": "    /* \"localVariable.sol\":60:556  contract SolidityTest {\r... */\n  mstore(0x40, 0x80)\n    /* \"localVariable.sol\":138:196  constructor() public {\r... */\n  callvalue\n    /* \"--CODEGEN--\":8:17   */\n  dup1\n    /* \"--CODEGEN--\":5:7   */\n  iszero\n  tag_1\n  jumpi\n    /* \"--CODEGEN--\":30:31   */\n  0x00\n    /* \"--CODEGEN--\":27:28   */\n  dup1\n    /* \"--CODEGEN--\":20:32   */\n  revert\n    /* \"--CODEGEN--\":5:7   */\ntag_1:\n    /* \"localVariable.sol\":138:196  constructor() public {\r... */\n  pop\n    /* \"localVariable.sol\":183:185  10 */\n  0x0a\n    /* \"localVariable.sol\":170:180  storedData */\n  0x00\n    /* \"localVariable.sol\":170:185  storedData = 10 */\n  dup2\n  swap1\n  sstore\n  pop\n    /* \"localVariable.sol\":60:556  contract SolidityTest {\r... */\n  dataSize(sub_0)\n  dup1\n  dataOffset(sub_0)\n  0x00\n  codecopy\n  0x00\n  return\nstop\n\nsub_0: assembly {\n        /* \"localVariable.sol\":60:556  contract SolidityTest {\r... */\n      mstore(0x40, 0x80)\n      callvalue\n        /* \"--CODEGEN--\":8:17   */\n      dup1\n        /* \"--CODEGEN--\":5:7   */\n      iszero\n      tag_1\n      jumpi\n        /* \"--CODEGEN--\":30:31   */\n      0x00\n        /* \"--CODEGEN--\":27:28   */\n      dup1\n        /* \"--CODEGEN--\":20:32   */\n      revert\n        /* \"--CODEGEN--\":5:7   */\n    tag_1:\n        /* \"localVariable.sol\":60:556  contract SolidityTest {\r... */\n      pop\n      jumpi(tag_2, lt(calldatasize, 0x04))\n      shr(0xe0, calldataload(0x00))\n      dup1\n      0x2a1afcd9\n      eq\n      tag_3\n      jumpi\n      dup1\n      0xb69ca9a1\n      eq\n      tag_4\n      jumpi\n      dup1\n      0xde292789\n      eq\n      tag_5\n      jumpi\n    tag_2:\n      0x00\n      dup1\n      revert\n        /* \"localVariable.sol\":89:111  uint public storedData */\n    tag_3:\n      tag_6\n      tag_7\n      jump\t// in\n    tag_6:\n      mload(0x40)\n      dup1\n      dup3\n      dup2\n      mstore\n      0x20\n      add\n      swap2\n      pop\n      pop\n      mload(0x40)\n      dup1\n      swap2\n      sub\n      swap1\n      return\n        /* \"localVariable.sol\":436:553  function getStoredData() public view returns (uint) {\r... */\n    tag_4:\n      tag_8\n      tag_9\n      jump\t// in\n    tag_8:\n      mload(0x40)\n      dup1\n      dup3\n      dup2\n      mstore\n      0x20\n      add\n      swap2\n      pop\n      pop\n      mload(0x40)\n      dup1\n      swap2\n      sub\n      swap1\n      return\n        /* \"localVariable.sol\":204:428  function getResult() public pure returns (uint) {\r... */\n    tag_5:\n      tag_10\n      tag_11\n      jump\t// in\n    tag_10:\n      mload(0x40)\n      dup1\n      dup3\n      dup2\n      mstore\n      0x20\n      add\n      swap2\n      pop\n      pop\n      mload(0x40)\n      dup1\n      swap2\n      sub\n      swap1\n      return\n        /* \"localVariable.sol\":89:111  uint public storedData */\n    tag_7:\n      sload(0x00)\n      dup2\n      jump\t// out\n        /* \"localVariable.sol\":436:553  function getStoredData() public view returns (uint) {\r... */\n    tag_9:\n        /* \"localVariable.sol\":482:486  uint */\n      0x00\n        /* \"localVariable.sol\":506:516  storedData */\n      dup1\n      sload\n        /* \"localVariable.sol\":499:516  return storedData */\n      swap1\n      pop\n        /* \"localVariable.sol\":436:553  function getStoredData() public view returns (uint) {\r... */\n      swap1\n      jump\t// out\n        /* \"localVariable.sol\":204:428  function getResult() public pure returns (uint) {\r... */\n    tag_11:\n        /* \"localVariable.sol\":246:250  uint */\n      0x00\n        /* \"localVariable.sol\":263:269  uint a */\n      dup1\n        /* \"localVariable.sol\":272:273  1 */\n      0x01\n        /* \"localVariable.sol\":263:273  uint a = 1 */\n      swap1\n      pop\n        /* \"localVariable.sol\":302:308  uint b */\n      0x00\n        /* \"localVariable.sol\":311:312  2 */\n      0x02\n        /* \"localVariable.sol\":302:312  uint b = 2 */\n      swap1\n      pop\n        /* \"localVariable.sol\":341:352  uint result */\n      0x00\n        /* \"localVariable.sol\":359:360  b */\n      dup2\n        /* \"localVariable.sol\":355:356  a */\n      dup4\n        /* \"localVariable.sol\":355:360  a + b */\n      add\n        /* \"localVariable.sol\":341:360  uint result = a + b */\n      swap1\n      pop\n        /* \"localVariable.sol\":393:399  result */\n      dup1\n        /* \"localVariable.sol\":386:399  return result */\n      swap4\n      pop\n      pop\n      pop\n      pop\n        /* \"localVariable.sol\":204:428  function getResult() public pure returns (uint) {\r... */\n      swap1\n      jump\t// out\n\n    auxdata: 0xa265627a7a7231582070dcefea65fdbec68011ab2d768b472caa05cce519c4b4db88b1e926f5b85dd164736f6c63430005110032\n}\n",
				"bytecode": {
					"linkReferences": {},
					"object": "608060405234801561001057600080fd5b50600a60008190555060f6806100276000396000f3fe6080604052348015600f57600080fd5b5060043610603c5760003560e01c80632a1afcd9146041578063b69ca9a114605d578063de292789146079575b600080fd5b60476095565b6040518082815260200191505060405180910390f35b6063609b565b6040518082815260200191505060405180910390f35b607f60a4565b6040518082815260200191505060405180910390f35b60005481565b60008054905090565b60008060019050600060029050600081830190508093505050509056fea265627a7a7231582070dcefea65fdbec68011ab2d768b472caa05cce519c4b4db88b1e926f5b85dd164736f6c63430005110032",
					"opcodes": "PUSH1 0x80 PUSH1 0x40 MSTORE CALLVALUE DUP1 ISZERO PUSH2 0x10 JUMPI PUSH1 0x0 DUP1 REVERT JUMPDEST POP PUSH1 0xA PUSH1 0x0 DUP2 SWAP1 SSTORE POP PUSH1 0xF6 DUP1 PUSH2 0x27 PUSH1 0x0 CODECOPY PUSH1 0x0 RETURN INVALID PUSH1 0x80 PUSH1 0x40 MSTORE CALLVALUE DUP1 ISZERO PUSH1 0xF JUMPI PUSH1 0x0 DUP1 REVERT JUMPDEST POP PUSH1 0x4 CALLDATASIZE LT PUSH1 0x3C JUMPI PUSH1 0x0 CALLDATALOAD PUSH1 0xE0 SHR DUP1 PUSH4 0x2A1AFCD9 EQ PUSH1 0x41 JUMPI DUP1 PUSH4 0xB69CA9A1 EQ PUSH1 0x5D JUMPI DUP1 PUSH4 0xDE292789 EQ PUSH1 0x79 JUMPI JUMPDEST PUSH1 0x0 DUP1 REVERT JUMPDEST PUSH1 0x47 PUSH1 0x95 JUMP JUMPDEST PUSH1 0x40 MLOAD DUP1 DUP3 DUP2 MSTORE PUSH1 0x20 ADD SWAP2 POP POP PUSH1 0x40 MLOAD DUP1 SWAP2 SUB SWAP1 RETURN JUMPDEST PUSH1 0x63 PUSH1 0x9B JUMP JUMPDEST PUSH1 0x40 MLOAD DUP1 DUP3 DUP2 MSTORE PUSH1 0x20 ADD SWAP2 POP POP PUSH1 0x40 MLOAD DUP1 SWAP2 SUB SWAP1 RETURN JUMPDEST PUSH1 0x7F PUSH1 0xA4 JUMP JUMPDEST PUSH1 0x40 MLOAD DUP1 DUP3 DUP2 MSTORE PUSH1 0x20 ADD SWAP2 POP POP PUSH1 0x40 MLOAD DUP1 SWAP2 SUB SWAP1 RETURN JUMPDEST PUSH1 0x0 SLOAD DUP2 JUMP JUMPDEST PUSH1 0x0 DUP1 SLOAD SWAP1 POP SWAP1 JUMP JUMPDEST PUSH1 0x0 DUP1 PUSH1 0x1 SWAP1 POP PUSH1 0x0 PUSH1 0x2 SWAP1 POP PUSH1 0x0 DUP2 DUP4 ADD SWAP1 POP DUP1 SWAP4 POP POP POP POP SWAP1 JUMP INVALID LOG2 PUSH6 0x627A7A723158 KECCAK256 PUSH17 0xDCEFEA65FDBEC68011AB2D768B472CAA05 0xCC 0xE5 NOT 0xC4 0xB4 0xDB DUP9 0xB1 0xE9 0x26 CREATE2 0xB8 0x5D 0xD1 PUSH5 0x736F6C6343 STOP SDIV GT STOP ORIGIN "
				},
				"gasEstimates": {
					"creation": {
						"codeDepositCost": "49200",
						"executionCost": "20113",
						"totalCost": "69313"
					},
					"external": {
						"getResult()": "280",
						"getStoredData()": "1013",
						"storedData()": "983"
					}
				},
				"methodIdentifiers": {
					"getResult()": "de292789",
					"getStoredData()": "b69ca9a1",
					"storedData()": "2a1afcd9"
				}
			},
			"storageLayout": {
				"storage": [
					{
						"astId": 3,
						"contract": "localVariable.sol:SolidityTest",
						"label": "storedData",
						"offset": 0,
						"slot": "0",
						"type": "t_uint256"
					}
				],
				"types": {
					"t_uint256": {
						"encoding": "inplace",
						"label": "uint256",
						"numberOfBytes": "32"
					}
				}
			},
			"userdoc": {
				"methods": {}
			}
		}
	}
}