{
	"data": {
		"bytecode": {
			"linkReferences": {},
			"object": "60806040526040518060800160405280600a60ff168152602001601460ff168152602001601e60ff168152602001602860ff168152506000906004610045929190610058565b5034801561005257600080fd5b506100c2565b826004810192821561008c579160200282015b8281111561008b578251829060ff1690559160200191906001019061006b565b5b509050610099919061009d565b5090565b6100bf91905b808211156100bb5760008160009055506001016100a3565b5090565b90565b61014b806100d16000396000f3fe608060405234801561001057600080fd5b50600436106100415760003560e01c80631f7b6d32146100465780635298f36d1461006457806371e5ee5f1461009c575b600080fd5b61004e6100de565b6040518082815260200191505060405180910390f35b61009a6004803603604081101561007a57600080fd5b8101908080359060200190929190803590602001909291905050506100e7565b005b6100c8600480360360208110156100b257600080fd5b81019080803590602001909291905050506100fe565b6040518082815260200191505060405180910390f35b60006004905090565b80600083600481106100f557fe5b01819055505050565b6000816004811061010b57fe5b01600091509050548156fea265627a7a723158201241afa0663898882235e771a862e38d0b966592ab95b271b327dbf57983618f64736f6c63430005110032",
			"opcodes": "PUSH1 0x80 PUSH1 0x40 MSTORE PUSH1 0x40 MLOAD DUP1 PUSH1 0x80 ADD PUSH1 0x40 MSTORE DUP1 PUSH1 0xA PUSH1 0xFF AND DUP2 MSTORE PUSH1 0x20 ADD PUSH1 0x14 PUSH1 0xFF AND DUP2 MSTORE PUSH1 0x20 ADD PUSH1 0x1E PUSH1 0xFF AND DUP2 MSTORE PUSH1 0x20 ADD PUSH1 0x28 PUSH1 0xFF AND DUP2 MSTORE POP PUSH1 0x0 SWAP1 PUSH1 0x4 PUSH2 0x45 SWAP3 SWAP2 SWAP1 PUSH2 0x58 JUMP JUMPDEST POP CALLVALUE DUP1 ISZERO PUSH2 0x52 JUMPI PUSH1 0x0 DUP1 REVERT JUMPDEST POP PUSH2 0xC2 JUMP JUMPDEST DUP3 PUSH1 0x4 DUP2 ADD SWAP3 DUP3 ISZERO PUSH2 0x8C JUMPI SWAP2 PUSH1 0x20 MUL DUP3 ADD JUMPDEST DUP3 DUP2 GT ISZERO PUSH2 0x8B JUMPI DUP3 MLOAD DUP3 SWAP1 PUSH1 0xFF AND SWAP1 SSTORE SWAP2 PUSH1 0x20 ADD SWAP2 SWAP1 PUSH1 0x1 ADD SWAP1 PUSH2 0x6B JUMP JUMPDEST JUMPDEST POP SWAP1 POP PUSH2 0x99 SWAP2 SWAP1 PUSH2 0x9D JUMP JUMPDEST POP SWAP1 JUMP JUMPDEST PUSH2 0xBF SWAP2 SWAP1 JUMPDEST DUP1 DUP3 GT ISZERO PUSH2 0xBB JUMPI PUSH1 0x0 DUP2 PUSH1 0x0 SWAP1 SSTORE POP PUSH1 0x1 ADD PUSH2 0xA3 JUMP JUMPDEST POP SWAP1 JUMP JUMPDEST SWAP1 JUMP JUMPDEST PUSH2 0x14B DUP1 PUSH2 0xD1 PUSH1 0x0 CODECOPY PUSH1 0x0 RETURN INVALID PUSH1 0x80 PUSH1 0x40 MSTORE CALLVALUE DUP1 ISZERO PUSH2 0x10 JUMPI PUSH1 0x0 DUP1 REVERT JUMPDEST POP PUSH1 0x4 CALLDATASIZE LT PUSH2 0x41 JUMPI PUSH1 0x0 CALLDATALOAD PUSH1 0xE0 SHR DUP1 PUSH4 0x1F7B6D32 EQ PUSH2 0x46 JUMPI DUP1 PUSH4 0x5298F36D EQ PUSH2 0x64 JUMPI DUP1 PUSH4 0x71E5EE5F EQ PUSH2 0x9C JUMPI JUMPDEST PUSH1 0x0 DUP1 REVERT JUMPDEST PUSH2 0x4E PUSH2 0xDE JUMP JUMPDEST PUSH1 0x40 MLOAD DUP1 DUP3 DUP2 MSTORE PUSH1 0x20 ADD SWAP2 POP POP PUSH1 0x40 MLOAD DUP1 SWAP2 SUB SWAP1 RETURN JUMPDEST PUSH2 0x9A PUSH1 0x4 DUP1 CALLDATASIZE SUB PUSH1 0x40 DUP2 LT ISZERO PUSH2 0x7A JUMPI PUSH1 0x0 DUP1 REVERT JUMPDEST DUP2 ADD SWAP1 DUP1 DUP1 CALLDATALOAD SWAP1 PUSH1 0x20 ADD SWAP1 SWAP3 SWAP2 SWAP1 DUP1 CALLDATALOAD SWAP1 PUSH1 0x20 ADD SWAP1 SWAP3 SWAP2 SWAP1 POP POP POP PUSH2 0xE7 JUMP JUMPDEST STOP JUMPDEST PUSH2 0xC8 PUSH1 0x4 DUP1 CALLDATASIZE SUB PUSH1 0x20 DUP2 LT ISZERO PUSH2 0xB2 JUMPI PUSH1 0x0 DUP1 REVERT JUMPDEST DUP2 ADD SWAP1 DUP1 DUP1 CALLDATALOAD SWAP1 PUSH1 0x20 ADD SWAP1 SWAP3 SWAP2 SWAP1 POP POP POP PUSH2 0xFE JUMP JUMPDEST PUSH1 0x40 MLOAD DUP1 DUP3 DUP2 MSTORE PUSH1 0x20 ADD SWAP2 POP POP PUSH1 0x40 MLOAD DUP1 SWAP2 SUB SWAP1 RETURN JUMPDEST PUSH1 0x0 PUSH1 0x4 SWAP1 POP SWAP1 JUMP JUMPDEST DUP1 PUSH1 0x0 DUP4 PUSH1 0x4 DUP2 LT PUSH2 0xF5 JUMPI INVALID JUMPDEST ADD DUP2 SWAP1 SSTORE POP POP POP JUMP JUMPDEST PUSH1 0x0 DUP2 PUSH1 0x4 DUP2 LT PUSH2 0x10B JUMPI INVALID JUMPDEST ADD PUSH1 0x0 SWAP2 POP SWAP1 POP SLOAD DUP2 JUMP INVALID LOG2 PUSH6 0x627A7A723158 KECCAK256 SLT COINBASE 0xAF LOG0 PUSH7 0x3898882235E771 0xA8 PUSH3 0xE38D0B SWAP7 PUSH6 0x92AB95B271B3 0x27 0xDB CREATE2 PUSH26 0x83618F64736F6C63430005110032000000000000000000000000 "
		},
		"gasEstimates": {
			"creation": {
				"codeDepositCost": "66200",
				"executionCost": "infinite",
				"totalCost": "infinite"
			},
			"external": {
				"arr(uint256)": "1151",
				"length()": "191",
				"setter(uint256,uint256)": "20300"
			}
		},
		"methodIdentifiers": {
			"arr(uint256)": "71e5ee5f",
			"length()": "1f7b6d32",
			"setter(uint256,uint256)": "5298f36d"
		}
	},
	"abi": [
		{
			"constant": true,
			"inputs": [
				{
					"internalType": "uint256",
					"name": "",
					"type": "uint256"
				}
			],
			"name": "arr",
			"outputs": [
				{
					"internalType": "uint256",
					"name": "",
					"type": "uint256"
				}
			],
			"payable": false,
			"stateMutability": "view",
			"type": "function"
		},
		{
			"constant": true,
			"inputs": [],
			"name": "length",
			"outputs": [
				{
					"internalType": "uint256",
					"name": "",
					"type": "uint256"
				}
			],
			"payable": false,
			"stateMutability": "view",
			"type": "function"
		},
		{
			"constant": false,
			"inputs": [
				{
					"internalType": "uint256",
					"name": "index",
					"type": "uint256"
				},
				{
					"internalType": "uint256",
					"name": "value",
					"type": "uint256"
				}
			],
			"name": "setter",
			"outputs": [],
			"payable": false,
			"stateMutability": "nonpayable",
			"type": "function"
		}
	]
}