{
	"data": {
		"bytecode": {
			"linkReferences": {},
			"object": "6080604052348015600e575f80fd5b5061010d8061001c5f395ff3fe6080604052348015600e575f80fd5b50600436106026575f3560e01c8063993a04b714602a575b5f80fd5b60306046565b604051603d9392919060a8565b60405180910390f35b5f805f434233925092509250909192565b5f819050919050565b6067816057565b82525050565b5f73ffffffffffffffffffffffffffffffffffffffff82169050919050565b5f609482606d565b9050919050565b60a281608c565b82525050565b5f60608201905060b95f8301866060565b60c460208301856060565b60cf6040830184609b565b94935050505056fea2646970667358221220350b8d65de962cd92ffe61d4492c30b247fbd62d8653c5a5ffac82396abdf95064736f6c634300081a0033",
			"opcodes": "PUSH1 0x80 PUSH1 0x40 MSTORE CALLVALUE DUP1 ISZERO PUSH1 0xE JUMPI PUSH0 DUP1 REVERT JUMPDEST POP PUSH2 0x10D DUP1 PUSH2 0x1C PUSH0 CODECOPY PUSH0 RETURN INVALID PUSH1 0x80 PUSH1 0x40 MSTORE CALLVALUE DUP1 ISZERO PUSH1 0xE JUMPI PUSH0 DUP1 REVERT JUMPDEST POP PUSH1 0x4 CALLDATASIZE LT PUSH1 0x26 JUMPI PUSH0 CALLDATALOAD PUSH1 0xE0 SHR DUP1 PUSH4 0x993A04B7 EQ PUSH1 0x2A JUMPI JUMPDEST PUSH0 DUP1 REVERT JUMPDEST PUSH1 0x30 PUSH1 0x46 JUMP JUMPDEST PUSH1 0x40 MLOAD PUSH1 0x3D SWAP4 SWAP3 SWAP2 SWAP1 PUSH1 0xA8 JUMP JUMPDEST PUSH1 0x40 MLOAD DUP1 SWAP2 SUB SWAP1 RETURN JUMPDEST PUSH0 DUP1 PUSH0 NUMBER TIMESTAMP CALLER SWAP3 POP SWAP3 POP SWAP3 POP SWAP1 SWAP2 SWAP3 JUMP JUMPDEST PUSH0 DUP2 SWAP1 POP SWAP2 SWAP1 POP JUMP JUMPDEST PUSH1 0x67 DUP2 PUSH1 0x57 JUMP JUMPDEST DUP3 MSTORE POP POP JUMP JUMPDEST PUSH0 PUSH20 0xFFFFFFFFFFFFFFFFFFFFFFFFFFFFFFFFFFFFFFFF DUP3 AND SWAP1 POP SWAP2 SWAP1 POP JUMP JUMPDEST PUSH0 PUSH1 0x94 DUP3 PUSH1 0x6D JUMP JUMPDEST SWAP1 POP SWAP2 SWAP1 POP JUMP JUMPDEST PUSH1 0xA2 DUP2 PUSH1 0x8C JUMP JUMPDEST DUP3 MSTORE POP POP JUMP JUMPDEST PUSH0 PUSH1 0x60 DUP3 ADD SWAP1 POP PUSH1 0xB9 PUSH0 DUP4 ADD DUP7 PUSH1 0x60 JUMP JUMPDEST PUSH1 0xC4 PUSH1 0x20 DUP4 ADD DUP6 PUSH1 0x60 JUMP JUMPDEST PUSH1 0xCF PUSH1 0x40 DUP4 ADD DUP5 PUSH1 0x9B JUMP JUMPDEST SWAP5 SWAP4 POP POP POP POP JUMP INVALID LOG2 PUSH5 0x6970667358 0x22 SLT KECCAK256 CALLDATALOAD SIGNEXTEND DUP14 PUSH6 0xDE962CD92FFE PUSH2 0xD449 0x2C ADDRESS 0xB2 SELFBALANCE 0xFB 0xD6 0x2D DUP7 MSTORE8 0xC5 0xA5 SELFDESTRUCT 0xAC DUP3 CODECOPY PUSH11 0xBDF95064736F6C63430008 BYTE STOP CALLER "
		},
		"gasEstimates": {
			"creation": {
				"codeDepositCost": "53800",
				"executionCost": "103",
				"totalCost": "53903"
			},
			"external": {
				"getter()": "infinite"
			}
		},
		"methodIdentifiers": {
			"getter()": "993a04b7"
		}
	},
	"abi": [
		{
			"inputs": [],
			"name": "getter",
			"outputs": [
				{
					"internalType": "uint256",
					"name": "block_no",
					"type": "uint256"
				},
				{
					"internalType": "uint256",
					"name": "timstamp",
					"type": "uint256"
				},
				{
					"internalType": "address",
					"name": "msgSender",
					"type": "address"
				}
			],
			"stateMutability": "view",
			"type": "function"
		}
	]
}