{
	"data": {
		"bytecode": {
			"linkReferences": {},
			"object": "6080604052348015600e575f80fd5b506101458061001c5f395ff3fe608060405234801561000f575f80fd5b506004361061003f575f3560e01c80633c691066146100435780637dad75cb14610061578063975057e71461007f575b5f80fd5b61004b610089565b60405161005891906100f6565b60405180910390f35b610069610091565b60405161007691906100f6565b60405180910390f35b610087610096565b005b5f8054905090565b5f5481565b5f600a90505f6040518060400160405280600481526020017f72617669000000000000000000000000000000000000000000000000000000008152509050815f819055505050565b5f819050919050565b6100f0816100de565b82525050565b5f6020820190506101095f8301846100e7565b9291505056fea26469706673582212207ca5e61990338776dd29d04be27e01dd854e01e4d42c3e9dd104210ae7e5e02a64736f6c634300081a0033",
			"opcodes": "PUSH1 0x80 PUSH1 0x40 MSTORE CALLVALUE DUP1 ISZERO PUSH1 0xE JUMPI PUSH0 DUP1 REVERT JUMPDEST POP PUSH2 0x145 DUP1 PUSH2 0x1C PUSH0 CODECOPY PUSH0 RETURN INVALID PUSH1 0x80 PUSH1 0x40 MSTORE CALLVALUE DUP1 ISZERO PUSH2 0xF JUMPI PUSH0 DUP1 REVERT JUMPDEST POP PUSH1 0x4 CALLDATASIZE LT PUSH2 0x3F JUMPI PUSH0 CALLDATALOAD PUSH1 0xE0 SHR DUP1 PUSH4 0x3C691066 EQ PUSH2 0x43 JUMPI DUP1 PUSH4 0x7DAD75CB EQ PUSH2 0x61 JUMPI DUP1 PUSH4 0x975057E7 EQ PUSH2 0x7F JUMPI JUMPDEST PUSH0 DUP1 REVERT JUMPDEST PUSH2 0x4B PUSH2 0x89 JUMP JUMPDEST PUSH1 0x40 MLOAD PUSH2 0x58 SWAP2 SWAP1 PUSH2 0xF6 JUMP JUMPDEST PUSH1 0x40 MLOAD DUP1 SWAP2 SUB SWAP1 RETURN JUMPDEST PUSH2 0x69 PUSH2 0x91 JUMP JUMPDEST PUSH1 0x40 MLOAD PUSH2 0x76 SWAP2 SWAP1 PUSH2 0xF6 JUMP JUMPDEST PUSH1 0x40 MLOAD DUP1 SWAP2 SUB SWAP1 RETURN JUMPDEST PUSH2 0x87 PUSH2 0x96 JUMP JUMPDEST STOP JUMPDEST PUSH0 DUP1 SLOAD SWAP1 POP SWAP1 JUMP JUMPDEST PUSH0 SLOAD DUP2 JUMP JUMPDEST PUSH0 PUSH1 0xA SWAP1 POP PUSH0 PUSH1 0x40 MLOAD DUP1 PUSH1 0x40 ADD PUSH1 0x40 MSTORE DUP1 PUSH1 0x4 DUP2 MSTORE PUSH1 0x20 ADD PUSH32 0x7261766900000000000000000000000000000000000000000000000000000000 DUP2 MSTORE POP SWAP1 POP DUP2 PUSH0 DUP2 SWAP1 SSTORE POP POP POP JUMP JUMPDEST PUSH0 DUP2 SWAP1 POP SWAP2 SWAP1 POP JUMP JUMPDEST PUSH2 0xF0 DUP2 PUSH2 0xDE JUMP JUMPDEST DUP3 MSTORE POP POP JUMP JUMPDEST PUSH0 PUSH1 0x20 DUP3 ADD SWAP1 POP PUSH2 0x109 PUSH0 DUP4 ADD DUP5 PUSH2 0xE7 JUMP JUMPDEST SWAP3 SWAP2 POP POP JUMP INVALID LOG2 PUSH5 0x6970667358 0x22 SLT KECCAK256 PUSH29 0xA5E61990338776DD29D04BE27E01DD854E01E4D42C3E9DD104210AE7E5 0xE0 0x2A PUSH5 0x736F6C6343 STOP ADDMOD BYTE STOP CALLER "
		},
		"gasEstimates": {
			"creation": {
				"codeDepositCost": "65000",
				"executionCost": "115",
				"totalCost": "65115"
			},
			"external": {
				"getStoredAge()": "2410",
				"store()": "22358",
				"storedAge()": "2424"
			}
		},
		"methodIdentifiers": {
			"getStoredAge()": "3c691066",
			"store()": "975057e7",
			"storedAge()": "7dad75cb"
		}
	},
	"abi": [
		{
			"inputs": [],
			"name": "getStoredAge",
			"outputs": [
				{
					"internalType": "uint256",
					"name": "",
					"type": "uint256"
				}
			],
			"stateMutability": "view",
			"type": "function"
		},
		{
			"inputs": [],
			"name": "store",
			"outputs": [],
			"stateMutability": "nonpayable",
			"type": "function"
		},
		{
			"inputs": [],
			"name": "storedAge",
			"outputs": [
				{
					"internalType": "uint256",
					"name": "",
					"type": "uint256"
				}
			],
			"stateMutability": "view",
			"type": "function"
		}
	]
}