{
	"data": {
		"bytecode": {
			"linkReferences": {},
			"object": "608060405260ff6000806101000a81548160ff021916908360ff16021790555034801561002b57600080fd5b5060d58061003a6000396000f3fe6080604052348015600f57600080fd5b506004361060325760003560e01c80634ddd108a146037578063ac3afa43146059575b600080fd5b603d6061565b604051808260ff1660ff16815260200191505060405180910390f35b605f6073565b005b6000809054906101000a900460ff1681565b60016000809054906101000a900460ff16016000806101000a81548160ff021916908360ff16021790555056fea265627a7a72315820921278627d599a5785a116e94915e8b5f87affa6af9d6cd0aefda117f031b56d64736f6c63430005110032",
			"opcodes": "PUSH1 0x80 PUSH1 0x40 MSTORE PUSH1 0xFF PUSH1 0x0 DUP1 PUSH2 0x100 EXP DUP2 SLOAD DUP2 PUSH1 0xFF MUL NOT AND SWAP1 DUP4 PUSH1 0xFF AND MUL OR SWAP1 SSTORE POP CALLVALUE DUP1 ISZERO PUSH2 0x2B JUMPI PUSH1 0x0 DUP1 REVERT JUMPDEST POP PUSH1 0xD5 DUP1 PUSH2 0x3A PUSH1 0x0 CODECOPY PUSH1 0x0 RETURN INVALID PUSH1 0x80 PUSH1 0x40 MSTORE CALLVALUE DUP1 ISZERO PUSH1 0xF JUMPI PUSH1 0x0 DUP1 REVERT JUMPDEST POP PUSH1 0x4 CALLDATASIZE LT PUSH1 0x32 JUMPI PUSH1 0x0 CALLDATALOAD PUSH1 0xE0 SHR DUP1 PUSH4 0x4DDD108A EQ PUSH1 0x37 JUMPI DUP1 PUSH4 0xAC3AFA43 EQ PUSH1 0x59 JUMPI JUMPDEST PUSH1 0x0 DUP1 REVERT JUMPDEST PUSH1 0x3D PUSH1 0x61 JUMP JUMPDEST PUSH1 0x40 MLOAD DUP1 DUP3 PUSH1 0xFF AND PUSH1 0xFF AND DUP2 MSTORE PUSH1 0x20 ADD SWAP2 POP POP PUSH1 0x40 MLOAD DUP1 SWAP2 SUB SWAP1 RETURN JUMPDEST PUSH1 0x5F PUSH1 0x73 JUMP JUMPDEST STOP JUMPDEST PUSH1 0x0 DUP1 SWAP1 SLOAD SWAP1 PUSH2 0x100 EXP SWAP1 DIV PUSH1 0xFF AND DUP2 JUMP JUMPDEST PUSH1 0x1 PUSH1 0x0 DUP1 SWAP1 SLOAD SWAP1 PUSH2 0x100 EXP SWAP1 DIV PUSH1 0xFF AND ADD PUSH1 0x0 DUP1 PUSH2 0x100 EXP DUP2 SLOAD DUP2 PUSH1 0xFF MUL NOT AND SWAP1 DUP4 PUSH1 0xFF AND MUL OR SWAP1 SSTORE POP JUMP INVALID LOG2 PUSH6 0x627A7A723158 KECCAK256 SWAP3 SLT PUSH25 0x627D599A5785A116E94915E8B5F87AFFA6AF9D6CD0AEFDA117 CREATE BALANCE 0xB5 PUSH14 0x64736F6C63430005110032000000 "
		},
		"gasEstimates": {
			"creation": {
				"codeDepositCost": "42600",
				"executionCost": "20960",
				"totalCost": "63560"
			},
			"external": {
				"money()": "1031",
				"setNum()": "21853"
			}
		},
		"methodIdentifiers": {
			"money()": "4ddd108a",
			"setNum()": "ac3afa43"
		}
	},
	"abi": [
		{
			"constant": true,
			"inputs": [],
			"name": "money",
			"outputs": [
				{
					"internalType": "uint8",
					"name": "",
					"type": "uint8"
				}
			],
			"payable": false,
			"stateMutability": "view",
			"type": "function"
		},
		{
			"constant": false,
			"inputs": [],
			"name": "setNum",
			"outputs": [],
			"payable": false,
			"stateMutability": "nonpayable",
			"type": "function"
		}
	]
}