{
	"data": {
		"bytecode": {
			"linkReferences": {},
			"object": "608060405260ff600055348015601457600080fd5b5060a4806100236000396000f3fe6080604052348015600f57600080fd5b506004361060325760003560e01c80634e70b1dc146037578063ac3afa43146053575b600080fd5b603d605b565b6040518082815260200191505060405180910390f35b60596061565b005b60005481565b60016000540160008190555056fea265627a7a72315820f1013e2e992b3e7c5e248487f4a69ddc2a272ef0a1e69fb2aec6b2373f7b1b7e64736f6c63430005110032",
			"opcodes": "PUSH1 0x80 PUSH1 0x40 MSTORE PUSH1 0xFF PUSH1 0x0 SSTORE CALLVALUE DUP1 ISZERO PUSH1 0x14 JUMPI PUSH1 0x0 DUP1 REVERT JUMPDEST POP PUSH1 0xA4 DUP1 PUSH2 0x23 PUSH1 0x0 CODECOPY PUSH1 0x0 RETURN INVALID PUSH1 0x80 PUSH1 0x40 MSTORE CALLVALUE DUP1 ISZERO PUSH1 0xF JUMPI PUSH1 0x0 DUP1 REVERT JUMPDEST POP PUSH1 0x4 CALLDATASIZE LT PUSH1 0x32 JUMPI PUSH1 0x0 CALLDATALOAD PUSH1 0xE0 SHR DUP1 PUSH4 0x4E70B1DC EQ PUSH1 0x37 JUMPI DUP1 PUSH4 0xAC3AFA43 EQ PUSH1 0x53 JUMPI JUMPDEST PUSH1 0x0 DUP1 REVERT JUMPDEST PUSH1 0x3D PUSH1 0x5B JUMP JUMPDEST PUSH1 0x40 MLOAD DUP1 DUP3 DUP2 MSTORE PUSH1 0x20 ADD SWAP2 POP POP PUSH1 0x40 MLOAD DUP1 SWAP2 SUB SWAP1 RETURN JUMPDEST PUSH1 0x59 PUSH1 0x61 JUMP JUMPDEST STOP JUMPDEST PUSH1 0x0 SLOAD DUP2 JUMP JUMPDEST PUSH1 0x1 PUSH1 0x0 SLOAD ADD PUSH1 0x0 DUP2 SWAP1 SSTORE POP JUMP INVALID LOG2 PUSH6 0x627A7A723158 KECCAK256 CALL ADD RETURNDATACOPY 0x2E SWAP10 0x2B RETURNDATACOPY PUSH29 0x5E248487F4A69DDC2A272EF0A1E69FB2AEC6B2373F7B1B7E64736F6C63 NUMBER STOP SDIV GT STOP ORIGIN "
		},
		"gasEstimates": {
			"creation": {
				"codeDepositCost": "32800",
				"executionCost": "20093",
				"totalCost": "52893"
			},
			"external": {
				"num()": "983",
				"setNum()": "20964"
			}
		},
		"methodIdentifiers": {
			"num()": "4e70b1dc",
			"setNum()": "ac3afa43"
		}
	},
	"abi": [
		{
			"constant": true,
			"inputs": [],
			"name": "num",
			"outputs": [
				{
					"internalType": "uint256",
					"name": "",
					"type": "uint256"
				}
			],
			"payable": false,
			"stateMutability": "view",
			"type": "function"
		},
		{
			"constant": false,
			"inputs": [],
			"name": "setNum",
			"outputs": [],
			"payable": false,
			"stateMutability": "nonpayable",
			"type": "function"
		}
	]
}