{
	"data": {
		"bytecode": {
			"linkReferences": {},
			"object": "608060405234801561001057600080fd5b50600a60008190555060f6806100276000396000f3fe6080604052348015600f57600080fd5b5060043610603c5760003560e01c80632a1afcd9146041578063b69ca9a114605d578063de292789146079575b600080fd5b60476095565b6040518082815260200191505060405180910390f35b6063609b565b6040518082815260200191505060405180910390f35b607f60a4565b6040518082815260200191505060405180910390f35b60005481565b60008054905090565b60008060019050600060029050600081830190508093505050509056fea265627a7a7231582070dcefea65fdbec68011ab2d768b472caa05cce519c4b4db88b1e926f5b85dd164736f6c63430005110032",
			"opcodes": "PUSH1 0x80 PUSH1 0x40 MSTORE CALLVALUE DUP1 ISZERO PUSH2 0x10 JUMPI PUSH1 0x0 DUP1 REVERT JUMPDEST POP PUSH1 0xA PUSH1 0x0 DUP2 SWAP1 SSTORE POP PUSH1 0xF6 DUP1 PUSH2 0x27 PUSH1 0x0 CODECOPY PUSH1 0x0 RETURN INVALID PUSH1 0x80 PUSH1 0x40 MSTORE CALLVALUE DUP1 ISZERO PUSH1 0xF JUMPI PUSH1 0x0 DUP1 REVERT JUMPDEST POP PUSH1 0x4 CALLDATASIZE LT PUSH1 0x3C JUMPI PUSH1 0x0 CALLDATALOAD PUSH1 0xE0 SHR DUP1 PUSH4 0x2A1AFCD9 EQ PUSH1 0x41 JUMPI DUP1 PUSH4 0xB69CA9A1 EQ PUSH1 0x5D JUMPI DUP1 PUSH4 0xDE292789 EQ PUSH1 0x79 JUMPI JUMPDEST PUSH1 0x0 DUP1 REVERT JUMPDEST PUSH1 0x47 PUSH1 0x95 JUMP JUMPDEST PUSH1 0x40 MLOAD DUP1 DUP3 DUP2 MSTORE PUSH1 0x20 ADD SWAP2 POP POP PUSH1 0x40 MLOAD DUP1 SWAP2 SUB SWAP1 RETURN JUMPDEST PUSH1 0x63 PUSH1 0x9B JUMP JUMPDEST PUSH1 0x40 MLOAD DUP1 DUP3 DUP2 MSTORE PUSH1 0x20 ADD SWAP2 POP POP PUSH1 0x40 MLOAD DUP1 SWAP2 SUB SWAP1 RETURN JUMPDEST PUSH1 0x7F PUSH1 0xA4 JUMP JUMPDEST PUSH1 0x40 MLOAD DUP1 DUP3 DUP2 MSTORE PUSH1 0x20 ADD SWAP2 POP POP PUSH1 0x40 MLOAD DUP1 SWAP2 SUB SWAP1 RETURN JUMPDEST PUSH1 0x0 SLOAD DUP2 JUMP JUMPDEST PUSH1 0x0 DUP1 SLOAD SWAP1 POP SWAP1 JUMP JUMPDEST PUSH1 0x0 DUP1 PUSH1 0x1 SWAP1 POP PUSH1 0x0 PUSH1 0x2 SWAP1 POP PUSH1 0x0 DUP2 DUP4 ADD SWAP1 POP DUP1 SWAP4 POP POP POP POP SWAP1 JUMP INVALID LOG2 PUSH6 0x627A7A723158 KECCAK256 PUSH17 0xDCEFEA65FDBEC68011AB2D768B472CAA05 0xCC 0xE5 NOT 0xC4 0xB4 0xDB DUP9 0xB1 0xE9 0x26 CREATE2 0xB8 0x5D 0xD1 PUSH5 0x736F6C6343 STOP SDIV GT STOP ORIGIN "
		},
		"gasEstimates": {
			"creation": {
				"codeDepositCost": "49200",
				"executionCost": "20113",
				"totalCost": "69313"
			},
			"external": {
				"getResult()": "280",
				"getStoredData()": "1013",
				"storedData()": "983"
			}
		},
		"methodIdentifiers": {
			"getResult()": "de292789",
			"getStoredData()": "b69ca9a1",
			"storedData()": "2a1afcd9"
		}
	},
	"abi": [
		{
			"inputs": [],
			"payable": false,
			"stateMutability": "nonpayable",
			"type": "constructor"
		},
		{
			"constant": true,
			"inputs": [],
			"name": "getResult",
			"outputs": [
				{
					"internalType": "uint256",
					"name": "",
					"type": "uint256"
				}
			],
			"payable": false,
			"stateMutability": "view",
			"type": "function"
		},
		{
			"constant": true,
			"inputs": [],
			"name": "getStoredData",
			"outputs": [
				{
					"internalType": "uint256",
					"name": "",
					"type": "uint256"
				}
			],
			"payable": false,
			"stateMutability": "view",
			"type": "function"
		},
		{
			"constant": true,
			"inputs": [],
			"name": "storedData",
			"outputs": [
				{
					"internalType": "uint256",
					"name": "",
					"type": "uint256"
				}
			],
			"payable": false,
			"stateMutability": "view",
			"type": "function"
		}
	]
}