{
	"data": {
		"bytecode": {
			"linkReferences": {},
			"object": "608060405260836001553480156013575f80fd5b50600c600281905550610193806100295f395ff3fe608060405234801561000f575f80fd5b5060043610610055575f3560e01c806322cb234a14610059578063262a9dff14610063578063b3be5b4e14610081578063bff852fa1461009f578063cd5e3c5d146100bd575b5f80fd5b6100616100db565b005b61006b6100e4565b6040516100789190610113565b60405180910390f35b6100896100e9565b6040516100969190610144565b60405180910390f35b6100a76100ef565b6040516100b49190610144565b60405180910390f35b6100c56100f5565b6040516100d29190610144565b60405180910390f35b60038081905550565b5f5481565b60035481565b60025481565b60015481565b5f819050919050565b61010d816100fb565b82525050565b5f6020820190506101265f830184610104565b92915050565b5f819050919050565b61013e8161012c565b82525050565b5f6020820190506101575f830184610135565b9291505056fea2646970667358221220495d5dc6adce200443e5bbb1d78b4313ccb870f315a238067ac93c2e9ef8454964736f6c634300081a0033",
			"opcodes": "PUSH1 0x80 PUSH1 0x40 MSTORE PUSH1 0x83 PUSH1 0x1 SSTORE CALLVALUE DUP1 ISZERO PUSH1 0x13 JUMPI PUSH0 DUP1 REVERT JUMPDEST POP PUSH1 0xC PUSH1 0x2 DUP2 SWAP1 SSTORE POP PUSH2 0x193 DUP1 PUSH2 0x29 PUSH0 CODECOPY PUSH0 RETURN INVALID PUSH1 0x80 PUSH1 0x40 MSTORE CALLVALUE DUP1 ISZERO PUSH2 0xF JUMPI PUSH0 DUP1 REVERT JUMPDEST POP PUSH1 0x4 CALLDATASIZE LT PUSH2 0x55 JUMPI PUSH0 CALLDATALOAD PUSH1 0xE0 SHR DUP1 PUSH4 0x22CB234A EQ PUSH2 0x59 JUMPI DUP1 PUSH4 0x262A9DFF EQ PUSH2 0x63 JUMPI DUP1 PUSH4 0xB3BE5B4E EQ PUSH2 0x81 JUMPI DUP1 PUSH4 0xBFF852FA EQ PUSH2 0x9F JUMPI DUP1 PUSH4 0xCD5E3C5D EQ PUSH2 0xBD JUMPI JUMPDEST PUSH0 DUP1 REVERT JUMPDEST PUSH2 0x61 PUSH2 0xDB JUMP JUMPDEST STOP JUMPDEST PUSH2 0x6B PUSH2 0xE4 JUMP JUMPDEST PUSH1 0x40 MLOAD PUSH2 0x78 SWAP2 SWAP1 PUSH2 0x113 JUMP JUMPDEST PUSH1 0x40 MLOAD DUP1 SWAP2 SUB SWAP1 RETURN JUMPDEST PUSH2 0x89 PUSH2 0xE9 JUMP JUMPDEST PUSH1 0x40 MLOAD PUSH2 0x96 SWAP2 SWAP1 PUSH2 0x144 JUMP JUMPDEST PUSH1 0x40 MLOAD DUP1 SWAP2 SUB SWAP1 RETURN JUMPDEST PUSH2 0xA7 PUSH2 0xEF JUMP JUMPDEST PUSH1 0x40 MLOAD PUSH2 0xB4 SWAP2 SWAP1 PUSH2 0x144 JUMP JUMPDEST PUSH1 0x40 MLOAD DUP1 SWAP2 SUB SWAP1 RETURN JUMPDEST PUSH2 0xC5 PUSH2 0xF5 JUMP JUMPDEST PUSH1 0x40 MLOAD PUSH2 0xD2 SWAP2 SWAP1 PUSH2 0x144 JUMP JUMPDEST PUSH1 0x40 MLOAD DUP1 SWAP2 SUB SWAP1 RETURN JUMPDEST PUSH1 0x3 DUP1 DUP2 SWAP1 SSTORE POP JUMP JUMPDEST PUSH0 SLOAD DUP2 JUMP JUMPDEST PUSH1 0x3 SLOAD DUP2 JUMP JUMPDEST PUSH1 0x2 SLOAD DUP2 JUMP JUMPDEST PUSH1 0x1 SLOAD DUP2 JUMP JUMPDEST PUSH0 DUP2 SWAP1 POP SWAP2 SWAP1 POP JUMP JUMPDEST PUSH2 0x10D DUP2 PUSH2 0xFB JUMP JUMPDEST DUP3 MSTORE POP POP JUMP JUMPDEST PUSH0 PUSH1 0x20 DUP3 ADD SWAP1 POP PUSH2 0x126 PUSH0 DUP4 ADD DUP5 PUSH2 0x104 JUMP JUMPDEST SWAP3 SWAP2 POP POP JUMP JUMPDEST PUSH0 DUP2 SWAP1 POP SWAP2 SWAP1 POP JUMP JUMPDEST PUSH2 0x13E DUP2 PUSH2 0x12C JUMP JUMPDEST DUP3 MSTORE POP POP JUMP JUMPDEST PUSH0 PUSH1 0x20 DUP3 ADD SWAP1 POP PUSH2 0x157 PUSH0 DUP4 ADD DUP5 PUSH2 0x135 JUMP JUMPDEST SWAP3 SWAP2 POP POP JUMP INVALID LOG2 PUSH5 0x6970667358 0x22 SLT KECCAK256 BLOBHASH TSTORE TSTORE 0xC6 0xAD 0xCE KECCAK256 DIV NUMBER 0xE5 0xBB 0xB1 0xD7 DUP12 NUMBER SGT 0xCC 0xB8 PUSH17 0xF315A238067AC93C2E9EF8454964736F6C PUSH4 0x4300081A STOP CALLER "
		},
		"gasEstimates": {
			"creation": {
				"codeDepositCost": "80600",
				"executionCost": "44347",
				"totalCost": "124947"
			},
			"external": {
				"age()": "2424",
				"class()": "2469",
				"roll()": "2491",
				"semester()": "2447",
				"setSemester()": "22235"
			}
		},
		"methodIdentifiers": {
			"age()": "262a9dff",
			"class()": "bff852fa",
			"roll()": "cd5e3c5d",
			"semester()": "b3be5b4e",
			"setSemester()": "22cb234a"
		}
	},
	"abi": [
		{
			"inputs": [],
			"stateMutability": "nonpayable",
			"type": "constructor"
		},
		{
			"inputs": [],
			"name": "age",
			"outputs": [
				{
					"internalType": "uint256",
					"name": "",
					"type": "uint256"
				}
			],
			"stateMutability": "view",
			"type": "function"
		},
		{
			"inputs": [],
			"name": "class",
			"outputs": [
				{
					"internalType": "int256",
					"name": "",
					"type": "int256"
				}
			],
			"stateMutability": "view",
			"type": "function"
		},
		{
			"inputs": [],
			"name": "roll",
			"outputs": [
				{
					"internalType": "int256",
					"name": "",
					"type": "int256"
				}
			],
			"stateMutability": "view",
			"type": "function"
		},
		{
			"inputs": [],
			"name": "semester",
			"outputs": [
				{
					"internalType": "int256",
					"name": "",
					"type": "int256"
				}
			],
			"stateMutability": "view",
			"type": "function"
		},
		{
			"inputs": [],
			"name": "setSemester",
			"outputs": [],
			"stateMutability": "nonpayable",
			"type": "function"
		}
	]
}