{
	"data": {
		"bytecode": {
			"linkReferences": {},
			"object": "608060405234801561001057600080fd5b5060d08061001f6000396000f3fe6080604052348015600f57600080fd5b506004361060285760003560e01c80634eb6a61d14602d575b600080fd5b605660048036036020811015604157600080fd5b8101908080359060200190929190505050606c565b6040518082815260200191505060405180910390f35b600080600090506000600190505b83811160915780820191508080600101915050607a565b819250505091905056fea265627a7a72315820fd7f26476ab20d41abceed3d33fff218c4ed5e8d1ac47ddcef94653146f0774f64736f6c63430005110032",
			"opcodes": "PUSH1 0x80 PUSH1 0x40 MSTORE CALLVALUE DUP1 ISZERO PUSH2 0x10 JUMPI PUSH1 0x0 DUP1 REVERT JUMPDEST POP PUSH1 0xD0 DUP1 PUSH2 0x1F PUSH1 0x0 CODECOPY PUSH1 0x0 RETURN INVALID PUSH1 0x80 PUSH1 0x40 MSTORE CALLVALUE DUP1 ISZERO PUSH1 0xF JUMPI PUSH1 0x0 DUP1 REVERT JUMPDEST POP PUSH1 0x4 CALLDATASIZE LT PUSH1 0x28 JUMPI PUSH1 0x0 CALLDATALOAD PUSH1 0xE0 SHR DUP1 PUSH4 0x4EB6A61D EQ PUSH1 0x2D JUMPI JUMPDEST PUSH1 0x0 DUP1 REVERT JUMPDEST PUSH1 0x56 PUSH1 0x4 DUP1 CALLDATASIZE SUB PUSH1 0x20 DUP2 LT ISZERO PUSH1 0x41 JUMPI PUSH1 0x0 DUP1 REVERT JUMPDEST DUP2 ADD SWAP1 DUP1 DUP1 CALLDATALOAD SWAP1 PUSH1 0x20 ADD SWAP1 SWAP3 SWAP2 SWAP1 POP POP POP PUSH1 0x6C JUMP JUMPDEST PUSH1 0x40 MLOAD DUP1 DUP3 DUP2 MSTORE PUSH1 0x20 ADD SWAP2 POP POP PUSH1 0x40 MLOAD DUP1 SWAP2 SUB SWAP1 RETURN JUMPDEST PUSH1 0x0 DUP1 PUSH1 0x0 SWAP1 POP PUSH1 0x0 PUSH1 0x1 SWAP1 POP JUMPDEST DUP4 DUP2 GT PUSH1 0x91 JUMPI DUP1 DUP3 ADD SWAP2 POP DUP1 DUP1 PUSH1 0x1 ADD SWAP2 POP POP PUSH1 0x7A JUMP JUMPDEST DUP2 SWAP3 POP POP POP SWAP2 SWAP1 POP JUMP INVALID LOG2 PUSH6 0x627A7A723158 KECCAK256 REVERT PUSH32 0x26476AB20D41ABCEED3D33FFF218C4ED5E8D1AC47DDCEF94653146F0774F6473 PUSH16 0x6C634300051100320000000000000000 "
		},
		"gasEstimates": {
			"creation": {
				"codeDepositCost": "41600",
				"executionCost": "93",
				"totalCost": "41693"
			},
			"external": {
				"sumUpTo1(uint256)": "infinite"
			}
		},
		"methodIdentifiers": {
			"sumUpTo1(uint256)": "4eb6a61d"
		}
	},
	"abi": [
		{
			"constant": true,
			"inputs": [
				{
					"internalType": "uint256",
					"name": "x",
					"type": "uint256"
				}
			],
			"name": "sumUpTo1",
			"outputs": [
				{
					"internalType": "uint256",
					"name": "",
					"type": "uint256"
				}
			],
			"payable": false,
			"stateMutability": "view",
			"type": "function"
		}
	]
}